{"abi":[{"anonymous":false,"inputs":[{"indexed":true,"internalType":"address","name":"_from","type":"address"},{"indexed":false,"internalType":"uint256","name":"_type","type":"uint256"}],"name":"CandyBought","type":"event"},{"inputs":[{"internalType":"uint256","name":"_candyType","type":"uint256"}],"name":"buyCandy","outputs":[{"internalType":"enum CandyShop.CandyTypes","name":"","type":"uint8"}],"stateMutability":"payable","type":"function"},{"inputs":[],"name":"getCandiesSold","outputs":[{"internalType":"uint256","name":"","type":"uint256"}],"stateMutability":"view","type":"function"},{"inputs":[],"name":"getCandyCost","outputs":[{"internalType":"uint256","name":"","type":"uint256"}],"stateMutability":"view","type":"function"},{"inputs":[],"name":"getNumberOfCandyTypes","outputs":[{"internalType":"uint256","name":"","type":"uint256"}],"stateMutability":"view","type":"function"}],"devdoc":{"kind":"dev","methods":{},"version":1},"evm":{"assembly":"    /* \"CandyShop.sol\":57:984  contract CandyShop {... */\n  mstore(0x40, 0x80)\n    /* \"CandyShop.sol\":182:183  0 */\n  0x00\n    /* \"CandyShop.sol\":165:183  uint candiesSold=0 */\n  dup1\n  sstore\n    /* \"CandyShop.sol\":205:206  3 */\n  0x03\n    /* \"CandyShop.sol\":189:206  uint numCandies=3 */\n  0x01\n  sstore\n    /* \"CandyShop.sol\":227:236  0.1 ether */\n  0x016345785d8a0000\n    /* \"CandyShop.sol\":212:236  uint candyCost=0.1 ether */\n  0x02\n  sstore\n    /* \"CandyShop.sol\":57:984  contract CandyShop {... */\n  callvalue\n  dup1\n  iszero\n  tag_1\n  jumpi\n  0x00\n  dup1\n  revert\ntag_1:\n  pop\n  dataSize(sub_0)\n  dup1\n  dataOffset(sub_0)\n  0x00\n  codecopy\n  0x00\n  return\nstop\n\nsub_0: assembly {\n        /* \"CandyShop.sol\":57:984  contract CandyShop {... */\n      mstore(0x40, 0x80)\n      jumpi(tag_1, lt(calldatasize, 0x04))\n      shr(0xe0, calldataload(0x00))\n      dup1\n      0x211b79b6\n      eq\n      tag_2\n      jumpi\n      dup1\n      0x259f2810\n      eq\n      tag_3\n      jumpi\n      dup1\n      0x4aa00924\n      eq\n      tag_4\n      jumpi\n      dup1\n      0xd1597f35\n      eq\n      tag_5\n      jumpi\n    tag_1:\n      0x00\n      dup1\n      revert\n        /* \"CandyShop.sol\":342:701  function buyCandy(uint _candyType) public payable returns(CandyTypes) {... */\n    tag_2:\n      tag_6\n      0x04\n      dup1\n      calldatasize\n      sub\n      0x20\n      dup2\n      lt\n      iszero\n      tag_7\n      jumpi\n      0x00\n      dup1\n      revert\n    tag_7:\n      dup2\n      add\n      swap1\n      dup1\n      dup1\n      calldataload\n      swap1\n      0x20\n      add\n      swap1\n      swap3\n      swap2\n      swap1\n      pop\n      pop\n      pop\n      tag_8\n      jump\t// in\n    tag_6:\n      mload(0x40)\n      dup1\n      dup3\n      0x02\n      dup2\n      gt\n      iszero\n      tag_9\n      jumpi\n      invalid\n    tag_9:\n      dup2\n      mstore\n      0x20\n      add\n      swap2\n      pop\n      pop\n      mload(0x40)\n      dup1\n      swap2\n      sub\n      swap1\n      return\n        /* \"CandyShop.sol\":707:790  function getCandyCost() public view returns(uint) {... */\n    tag_3:\n      callvalue\n      dup1\n      iszero\n      tag_10\n      jumpi\n      0x00\n      dup1\n      revert\n    tag_10:\n      pop\n      tag_11\n      tag_12\n      jump\t// in\n    tag_11:\n      mload(0x40)\n      dup1\n      dup3\n      dup2\n      mstore\n      0x20\n      add\n      swap2\n      pop\n      pop\n      mload(0x40)\n      dup1\n      swap2\n      sub\n      swap1\n      return\n        /* \"CandyShop.sol\":796:889  function getNumberOfCandyTypes() public view returns(uint) {... */\n    tag_4:\n      callvalue\n      dup1\n      iszero\n      tag_13\n      jumpi\n      0x00\n      dup1\n      revert\n    tag_13:\n      pop\n      tag_14\n      tag_15\n      jump\t// in\n    tag_14:\n      mload(0x40)\n      dup1\n      dup3\n      dup2\n      mstore\n      0x20\n      add\n      swap2\n      pop\n      pop\n      mload(0x40)\n      dup1\n      swap2\n      sub\n      swap1\n      return\n        /* \"CandyShop.sol\":895:982  function getCandiesSold() public view returns(uint) {... */\n    tag_5:\n      callvalue\n      dup1\n      iszero\n      tag_16\n      jumpi\n      0x00\n      dup1\n      revert\n    tag_16:\n      pop\n      tag_17\n      tag_18\n      jump\t// in\n    tag_17:\n      mload(0x40)\n      dup1\n      dup3\n      dup2\n      mstore\n      0x20\n      add\n      swap2\n      pop\n      pop\n      mload(0x40)\n      dup1\n      swap2\n      sub\n      swap1\n      return\n        /* \"CandyShop.sol\":342:701  function buyCandy(uint _candyType) public payable returns(CandyTypes) {... */\n    tag_8:\n        /* \"CandyShop.sol\":400:410  CandyTypes */\n      0x00\n        /* \"CandyShop.sol\":441:450  candyCost */\n      sload(0x02)\n        /* \"CandyShop.sol\":430:439  msg.value */\n      callvalue\n        /* \"CandyShop.sol\":430:450  msg.value==candyCost */\n      eq\n        /* \"CandyShop.sol\":422:484  require(msg.value==candyCost, 'Price of 1 candy is 0.1 ether') */\n      tag_20\n      jumpi\n      mload(0x40)\n      0x08c379a000000000000000000000000000000000000000000000000000000000\n      dup2\n      mstore\n      0x04\n      add\n      dup1\n      dup1\n      0x20\n      add\n      dup3\n      dup2\n      sub\n      dup3\n      mstore\n      0x1d\n      dup2\n      mstore\n      0x20\n      add\n      dup1\n      0x5072696365206f6620312063616e647920697320302e31206574686572000000\n      dup2\n      mstore\n      pop\n      0x20\n      add\n      swap2\n      pop\n      pop\n      mload(0x40)\n      dup1\n      swap2\n      sub\n      swap1\n      revert\n    tag_20:\n        /* \"CandyShop.sol\":513:514  3 */\n      0x03\n        /* \"CandyShop.sol\":502:512  _candyType */\n      dup3\n        /* \"CandyShop.sol\":502:514  _candyType<3 */\n      lt\n        /* \"CandyShop.sol\":494:550  require(_candyType<3, 'Candies come in only 3 varities') */\n      tag_21\n      jumpi\n      mload(0x40)\n      0x08c379a000000000000000000000000000000000000000000000000000000000\n      dup2\n      mstore\n      0x04\n      add\n      dup1\n      dup1\n      0x20\n      add\n      dup3\n      dup2\n      sub\n      dup3\n      mstore\n      0x1f\n      dup2\n      mstore\n      0x20\n      add\n      dup1\n      0x43616e6469657320636f6d6520696e206f6e6c79203320766172697469657300\n      dup2\n      mstore\n      pop\n      0x20\n      add\n      swap2\n      pop\n      pop\n      mload(0x40)\n      dup1\n      swap2\n      sub\n      swap1\n      revert\n    tag_21:\n        /* \"CandyShop.sol\":578:588  msg.sender */\n      caller\n        /* \"CandyShop.sol\":566:601  CandyBought(msg.sender, _candyType) */\n      0xffffffffffffffffffffffffffffffffffffffff\n      and\n      0xaf528e2822d8da0be24a8a6fce1da4401084dde0806c5c9ec40a696b88b13019\n        /* \"CandyShop.sol\":590:600  _candyType */\n      dup4\n        /* \"CandyShop.sol\":566:601  CandyBought(msg.sender, _candyType) */\n      mload(0x40)\n      dup1\n      dup3\n      dup2\n      mstore\n      0x20\n      add\n      swap2\n      pop\n      pop\n      mload(0x40)\n      dup1\n      swap2\n      sub\n      swap1\n      log2\n        /* \"CandyShop.sol\":633:643  _candyType */\n      dup2\n        /* \"CandyShop.sol\":622:644  CandyTypes(_candyType) */\n      0x02\n      dup2\n      gt\n      iszero\n      tag_22\n      jumpi\n      invalid\n    tag_22:\n        /* \"CandyShop.sol\":611:621  candyTypes */\n      0x03\n      0x00\n        /* \"CandyShop.sol\":611:644  candyTypes=CandyTypes(_candyType) */\n      0x0100\n      exp\n      dup2\n      sload\n      dup2\n      0xff\n      mul\n      not\n      and\n      swap1\n      dup4\n      0x02\n      dup2\n      gt\n      iszero\n      tag_23\n      jumpi\n      invalid\n    tag_23:\n      mul\n      or\n      swap1\n      sstore\n      pop\n        /* \"CandyShop.sol\":654:665  candiesSold */\n      0x00\n      dup1\n        /* \"CandyShop.sol\":654:667  candiesSold++ */\n      dup2\n      sload\n      dup1\n      swap3\n      swap2\n      swap1\n      0x01\n      add\n      swap2\n      swap1\n      pop\n      sstore\n      pop\n        /* \"CandyShop.sol\":684:694  candyTypes */\n      0x03\n      0x00\n      swap1\n      sload\n      swap1\n      0x0100\n      exp\n      swap1\n      div\n      0xff\n      and\n        /* \"CandyShop.sol\":677:694  return candyTypes */\n      swap1\n      pop\n        /* \"CandyShop.sol\":342:701  function buyCandy(uint _candyType) public payable returns(CandyTypes) {... */\n      swap2\n      swap1\n      pop\n      jump\t// out\n        /* \"CandyShop.sol\":707:790  function getCandyCost() public view returns(uint) {... */\n    tag_12:\n        /* \"CandyShop.sol\":751:755  uint */\n      0x00\n        /* \"CandyShop.sol\":774:783  candyCost */\n      sload(0x02)\n        /* \"CandyShop.sol\":767:783  return candyCost */\n      swap1\n      pop\n        /* \"CandyShop.sol\":707:790  function getCandyCost() public view returns(uint) {... */\n      swap1\n      jump\t// out\n        /* \"CandyShop.sol\":796:889  function getNumberOfCandyTypes() public view returns(uint) {... */\n    tag_15:\n        /* \"CandyShop.sol\":849:853  uint */\n      0x00\n        /* \"CandyShop.sol\":872:882  numCandies */\n      sload(0x01)\n        /* \"CandyShop.sol\":865:882  return numCandies */\n      swap1\n      pop\n        /* \"CandyShop.sol\":796:889  function getNumberOfCandyTypes() public view returns(uint) {... */\n      swap1\n      jump\t// out\n        /* \"CandyShop.sol\":895:982  function getCandiesSold() public view returns(uint) {... */\n    tag_18:\n        /* \"CandyShop.sol\":941:945  uint */\n      0x00\n        /* \"CandyShop.sol\":964:975  candiesSold */\n      dup1\n      sload\n        /* \"CandyShop.sol\":957:975  return candiesSold */\n      swap1\n      pop\n        /* \"CandyShop.sol\":895:982  function getCandiesSold() public view returns(uint) {... */\n      swap1\n      jump\t// out\n\n    auxdata: 0xa26469706673582212202782c993a2f77c8a960d12e5439a27c5a4f354e025189bafc9f5696e0277d47664736f6c63430007050033\n}\n","bytecode":{"linkReferences":{},"object":"608060405260008055600360015567016345785d8a000060025534801561002557600080fd5b506102f8806100356000396000f3fe60806040526004361061003f5760003560e01c8063211b79b614610044578063259f2810146100915780634aa00924146100bc578063d1597f35146100e7575b600080fd5b6100706004803603602081101561005a57600080fd5b8101908080359060200190929190505050610112565b6040518082600281111561008057fe5b815260200191505060405180910390f35b34801561009d57600080fd5b506100a66102a5565b6040518082815260200191505060405180910390f35b3480156100c857600080fd5b506100d16102af565b6040518082815260200191505060405180910390f35b3480156100f357600080fd5b506100fc6102b9565b6040518082815260200191505060405180910390f35b6000600254341461018b576040517f08c379a000000000000000000000000000000000000000000000000000000000815260040180806020018281038252601d8152602001807f5072696365206f6620312063616e647920697320302e3120657468657200000081525060200191505060405180910390fd5b60038210610201576040517f08c379a000000000000000000000000000000000000000000000000000000000815260040180806020018281038252601f8152602001807f43616e6469657320636f6d6520696e206f6e6c7920332076617269746965730081525060200191505060405180910390fd5b3373ffffffffffffffffffffffffffffffffffffffff167faf528e2822d8da0be24a8a6fce1da4401084dde0806c5c9ec40a696b88b13019836040518082815260200191505060405180910390a281600281111561025b57fe5b600360006101000a81548160ff0219169083600281111561027857fe5b02179055506000808154809291906001019190505550600360009054906101000a900460ff169050919050565b6000600254905090565b6000600154905090565b6000805490509056fea26469706673582212202782c993a2f77c8a960d12e5439a27c5a4f354e025189bafc9f5696e0277d47664736f6c63430007050033","opcodes":"PUSH1 0x80 PUSH1 0x40 MSTORE PUSH1 0x0 DUP1 SSTORE PUSH1 0x3 PUSH1 0x1 SSTORE PUSH8 0x16345785D8A0000 PUSH1 0x2 SSTORE CALLVALUE DUP1 ISZERO PUSH2 0x25 JUMPI PUSH1 0x0 DUP1 REVERT JUMPDEST POP PUSH2 0x2F8 DUP1 PUSH2 0x35 PUSH1 0x0 CODECOPY PUSH1 0x0 RETURN INVALID PUSH1 0x80 PUSH1 0x40 MSTORE PUSH1 0x4 CALLDATASIZE LT PUSH2 0x3F JUMPI PUSH1 0x0 CALLDATALOAD PUSH1 0xE0 SHR DUP1 PUSH4 0x211B79B6 EQ PUSH2 0x44 JUMPI DUP1 PUSH4 0x259F2810 EQ PUSH2 0x91 JUMPI DUP1 PUSH4 0x4AA00924 EQ PUSH2 0xBC JUMPI DUP1 PUSH4 0xD1597F35 EQ PUSH2 0xE7 JUMPI JUMPDEST PUSH1 0x0 DUP1 REVERT JUMPDEST PUSH2 0x70 PUSH1 0x4 DUP1 CALLDATASIZE SUB PUSH1 0x20 DUP2 LT ISZERO PUSH2 0x5A JUMPI PUSH1 0x0 DUP1 REVERT JUMPDEST DUP2 ADD SWAP1 DUP1 DUP1 CALLDATALOAD SWAP1 PUSH1 0x20 ADD SWAP1 SWAP3 SWAP2 SWAP1 POP POP POP PUSH2 0x112 JUMP JUMPDEST PUSH1 0x40 MLOAD DUP1 DUP3 PUSH1 0x2 DUP2 GT ISZERO PUSH2 0x80 JUMPI INVALID JUMPDEST DUP2 MSTORE PUSH1 0x20 ADD SWAP2 POP POP PUSH1 0x40 MLOAD DUP1 SWAP2 SUB SWAP1 RETURN JUMPDEST CALLVALUE DUP1 ISZERO PUSH2 0x9D JUMPI PUSH1 0x0 DUP1 REVERT JUMPDEST POP PUSH2 0xA6 PUSH2 0x2A5 JUMP JUMPDEST PUSH1 0x40 MLOAD DUP1 DUP3 DUP2 MSTORE PUSH1 0x20 ADD SWAP2 POP POP PUSH1 0x40 MLOAD DUP1 SWAP2 SUB SWAP1 RETURN JUMPDEST CALLVALUE DUP1 ISZERO PUSH2 0xC8 JUMPI PUSH1 0x0 DUP1 REVERT JUMPDEST POP PUSH2 0xD1 PUSH2 0x2AF JUMP JUMPDEST PUSH1 0x40 MLOAD DUP1 DUP3 DUP2 MSTORE PUSH1 0x20 ADD SWAP2 POP POP PUSH1 0x40 MLOAD DUP1 SWAP2 SUB SWAP1 RETURN JUMPDEST CALLVALUE DUP1 ISZERO PUSH2 0xF3 JUMPI PUSH1 0x0 DUP1 REVERT JUMPDEST POP PUSH2 0xFC PUSH2 0x2B9 JUMP JUMPDEST PUSH1 0x40 MLOAD DUP1 DUP3 DUP2 MSTORE PUSH1 0x20 ADD SWAP2 POP POP PUSH1 0x40 MLOAD DUP1 SWAP2 SUB SWAP1 RETURN JUMPDEST PUSH1 0x0 PUSH1 0x2 SLOAD CALLVALUE EQ PUSH2 0x18B JUMPI PUSH1 0x40 MLOAD PUSH32 0x8C379A000000000000000000000000000000000000000000000000000000000 DUP2 MSTORE PUSH1 0x4 ADD DUP1 DUP1 PUSH1 0x20 ADD DUP3 DUP2 SUB DUP3 MSTORE PUSH1 0x1D DUP2 MSTORE PUSH1 0x20 ADD DUP1 PUSH32 0x5072696365206F6620312063616E647920697320302E31206574686572000000 DUP2 MSTORE POP PUSH1 0x20 ADD SWAP2 POP POP PUSH1 0x40 MLOAD DUP1 SWAP2 SUB SWAP1 REVERT JUMPDEST PUSH1 0x3 DUP3 LT PUSH2 0x201 JUMPI PUSH1 0x40 MLOAD PUSH32 0x8C379A000000000000000000000000000000000000000000000000000000000 DUP2 MSTORE PUSH1 0x4 ADD DUP1 DUP1 PUSH1 0x20 ADD DUP3 DUP2 SUB DUP3 MSTORE PUSH1 0x1F DUP2 MSTORE PUSH1 0x20 ADD DUP1 PUSH32 0x43616E6469657320636F6D6520696E206F6E6C79203320766172697469657300 DUP2 MSTORE POP PUSH1 0x20 ADD SWAP2 POP POP PUSH1 0x40 MLOAD DUP1 SWAP2 SUB SWAP1 REVERT JUMPDEST CALLER PUSH20 0xFFFFFFFFFFFFFFFFFFFFFFFFFFFFFFFFFFFFFFFF AND PUSH32 0xAF528E2822D8DA0BE24A8A6FCE1DA4401084DDE0806C5C9EC40A696B88B13019 DUP4 PUSH1 0x40 MLOAD DUP1 DUP3 DUP2 MSTORE PUSH1 0x20 ADD SWAP2 POP POP PUSH1 0x40 MLOAD DUP1 SWAP2 SUB SWAP1 LOG2 DUP2 PUSH1 0x2 DUP2 GT ISZERO PUSH2 0x25B JUMPI INVALID JUMPDEST PUSH1 0x3 PUSH1 0x0 PUSH2 0x100 EXP DUP2 SLOAD DUP2 PUSH1 0xFF MUL NOT AND SWAP1 DUP4 PUSH1 0x2 DUP2 GT ISZERO PUSH2 0x278 JUMPI INVALID JUMPDEST MUL OR SWAP1 SSTORE POP PUSH1 0x0 DUP1 DUP2 SLOAD DUP1 SWAP3 SWAP2 SWAP1 PUSH1 0x1 ADD SWAP2 SWAP1 POP SSTORE POP PUSH1 0x3 PUSH1 0x0 SWAP1 SLOAD SWAP1 PUSH2 0x100 EXP SWAP1 DIV PUSH1 0xFF AND SWAP1 POP SWAP2 SWAP1 POP JUMP JUMPDEST PUSH1 0x0 PUSH1 0x2 SLOAD SWAP1 POP SWAP1 JUMP JUMPDEST PUSH1 0x0 PUSH1 0x1 SLOAD SWAP1 POP SWAP1 JUMP JUMPDEST PUSH1 0x0 DUP1 SLOAD SWAP1 POP SWAP1 JUMP INVALID LOG2 PUSH5 0x6970667358 0x22 SLT KECCAK256 0x27 DUP3 0xC9 SWAP4 LOG2 0xF7 PUSH29 0x8A960D12E5439A27C5A4F354E025189BAFC9F5696E0277D47664736F6C PUSH4 0x43000705 STOP CALLER "},"gasEstimates":{"creation":{"codeDepositCost":"152000","executionCost":"45214","totalCost":"197214"},"external":{"buyCandy(uint256)":"45155","getCandiesSold()":"1057","getCandyCost()":"1013","getNumberOfCandyTypes()":"1035"}},"methodIdentifiers":{"buyCandy(uint256)":"211b79b6","getCandiesSold()":"d1597f35","getCandyCost()":"259f2810","getNumberOfCandyTypes()":"4aa00924"}},"storageLayout":{"storage":[{"astId":8,"contract":"CandyShop.sol:CandyShop","label":"candiesSold","offset":0,"slot":"0","type":"t_uint256"},{"astId":11,"contract":"CandyShop.sol:CandyShop","label":"numCandies","offset":0,"slot":"1","type":"t_uint256"},{"astId":14,"contract":"CandyShop.sol:CandyShop","label":"candyCost","offset":0,"slot":"2","type":"t_uint256"},{"astId":16,"contract":"CandyShop.sol:CandyShop","label":"candyTypes","offset":0,"slot":"3","type":"t_enum(CandyTypes)5"}],"types":{"t_enum(CandyTypes)5":{"encoding":"inplace","label":"enum CandyShop.CandyTypes","numberOfBytes":"1"},"t_uint256":{"encoding":"inplace","label":"uint256","numberOfBytes":"32"}}},"userdoc":{"kind":"user","methods":{},"version":1}}